:020000040800F2
:10000000E006002045010008292100082B210008F6
:100010002F210008332100083721000800000000CC
:10002000000000000000000000000000392100086E
:100030003B210008000000003D2100083F2100088E
:100040005F0100085F0100085F0100085F01000810
:100050005F0100085F0100085F0100085F01000800
:100060005F0100085F0100085F0100085F010008F0
:100070003F2E00085F010008FD2700085F0100080F
:100080005F010008732A00085F0100085F01000893
:100090005F0100085F0100085F0100085F010008C0
:1000A0005F0100085F0100085F0100085F010008B0
:1000B000752500085F0100085F0100085F01000866
:1000C0005F0100085F0100085F0100085F01000890
:1000D0005F0100086B270008212A0008952D000801
:1000E0005F0100085F0100085F0100085F01000870
:1000F0005F0100085F0100085F0100085F01000860
:100100005F0100085F0100085F0100085F0100084F
:100110005F0100085F0100085F0100085F0100083F
:100120005F0100085F0100085F0100085F0100082F
:10013000DFF80CD003F036F8004800479D1F000898
:10014000E00600200648804706480047FEE7FEE735
:10015000FEE7FEE7FEE7FEE7FEE7FEE7FEE7FEE777
:1001600047020008310100080CB500200190009002
:100170006C48006840F480306A49086000BF6948F4
:10018000006800F4003000900198401C0190009835
:1001900018B90198B0F5A06FF1D16248006800F479
:1001A000003010B10120009001E000200090009884
:1001B000012843D15C48006840F010005A490860AB
:1001C0000846006820F0030008600846006840F018
:1001D0000200086053484068524948600846406839
:1001E00048600846406840F48060486008464068BF
:1001F00020F47C1048600846406840F4E8104860ED
:100200000846006840F08070086000BF45480068FC
:1002100000F000700028F9D04248406820F0030048
:10022000404948600846406840F00200486000BF0E
:100230003C48406800F00C000828F9D10CBD10B50E
:10024000FFF792FF10BD10B53648006840F001007E
:1002500034490860084640683449084031494860DC
:1002600008460068324908402E4908600846006880
:1002700020F4802008600846406820F4FE004860B2
:100280004FF41F008860FFF7DAFF4FF00060294944
:10029000086010BD10B5002100200022214B5B68D2
:1002A00003F00C0121B1042906D0082928D107E068
:1002B000214B224C236027E01F4B204C236023E07E
:1002C000184B5B6803F47010164B5B6803F48032C4
:1002D000022303EB904022B9194B4343174C236090
:1002E0000DE0104B5B6803F4003323B1144B434320
:1002F000124C236003E0104B4343104C236003E097
:100300000D4B0E4C236000BF00BF064B5B68C3F370
:1003100003130C4CE15C094B1B68CB40074C23607A
:1003200010BD000000100240002002400000FFF855
:10033000FFFFF6FE08ED00E000127A00000000204A
:1003400000093D000400002031490143314A116099
:10035000704770B5002100230F22C47804B32D4CE0
:10036000246804F4E064C4F5E064210AC1F10403E4
:10037000CA40447804FA03F1847814402143090107
:10038000254C0678A155047804F01F050124AC40E3
:1003900005786D11AD0005F1E025C5F8004109E0D3
:1003A000047804F01F050124AC401C4D067876113A
:1003B00045F8264070BD1A4A0A400243154B1B1FE0
:1003C0001A60704739B1134A121D12680243114B6B
:1003D0001B1D1A6006E00F4A121D126882430D4B66
:1003E0001B1D1A607047042808D14FF0E0210969ED
:1003F00041F004014FF0E022116107E04FF0E021ED
:10040000096921F004014FF0E022116170470000FA
:100410000000FA050CED00E000E400E080E100E0FF
:1004200080FFFF1F01684FF6FE721140016000213E
:10043000016041608160C1608D49884208D18C496A
:100440000839496841F00F01894A083A51608AE049
:1004500087491431884208D185490839496841F0F3
:10046000F001834A083A51607DE081492831884291
:1004700008D17F490839496841F470617C4A083ADB
:10048000516070E07A493C31884208D17849083996
:10049000496841F47041764A083A516063E0744912
:1004A0005031884208D172490839496841F47021B5
:1004B0006F4A083A516056E06D496431884208D16C
:1004C0006B490839496841F47001694A083A51603A
:1004D00049E067497831884208D165490839496857
:1004E00041F07061624A083A51603CE061498842DB
:1004F00006D1011F096841F00F01021F116032E0AF
:100500005C491431884208D15A49091F096841F0F1
:10051000F001584A121F116025E0564928318842DF
:1005200008D15449091F096841F47061514A121FEA
:10053000116018E04F493C31884208D14D49091FEC
:10054000096841F470414B4A121F11600BE04949A0
:100550005031884207D14749091F096841F4702189
:10056000444A121F1160704710B50022026847F616
:10057000F0739A430C6A8B6823430C6923434C69DC
:1005800023438C692343CC6923434C6A23438C6AFD
:1005900023431A430260CB6843600B6883604B6857
:1005A000C36010BD0021016041608160C1600161D4
:1005B00041618161C161016241628162704721B123
:1005C000026842F00102026004E002684FF6FE7326
:1005D0001A40026070471AB103680B43036002E0DF
:1005E00003688B4303607047416070470146486869
:1005F00080B2704701460020002201F080531BB1F9
:100600001C4B083B1A6802E0194B083B1A6802EAC7
:1006100001030BB1012000E00020704700F0805181
:1006200019B11449091F086002E0114908394860EE
:10063000704701460020002201F080531BB10D4B92
:10064000083B1A6802E00A4B083B1A6802EA0103F9
:100650000BB1012000E00020704700F0805119B17B
:100660000449091F086002E00149083948607047E1
:10067000080002400804024010B50446CC488442F9
:1006800008D10121042000F02DFB0021042000F0FE
:1006900029FB46E0C748844208D10121082000F028
:1006A00021FB0021082000F01DFB3AE0C2488442F3
:1006B00008D10121102000F015FB0021102000F0CE
:1006C00011FB2EE0BD48844208D10121202000F01A
:1006D00009FB0021202000F005FB22E0B8488442FD
:1006E00008D10121402000F0FDFA0021402000F057
:1006F000F9FA16E0B348844208D10121802000F0C5
:10070000F1FA0021802000F0EDFA0AE0AE488442C0
:1007100007D10121801500F0E5FA0021A01500F0B5
:10072000E1FA10BD10B50121084600F0DBFA002106
:10073000012000F0D7FA10BD2DE9F0410246002556
:100740000026002000230024002791F803C00CF0AD
:100750000F0591F803C00CF0100CBCF1000F03D092
:1007600091F802C04CEA050591F800C0BCF1000FF9
:1007700031D0146800202BE04FF0010C0CFA00F38C
:10078000B1F800C00CEA03069E4220D183004FF06E
:100790000F0C0CFA03F7BC4305FA03FC4CEA040403
:1007A00091F803C0BCF1280F06D14FF0010C0CFAF0
:1007B00000FCC2F814C00AE091F803C0BCF1480F75
:1007C00005D14FF0010C0CFA00FCC2F810C0401C1F
:1007D0000828D1D31460B1F800C0BCF1FF0F34DD9C
:1007E000546800202EE000F1080C4FF0010808FAD0
:1007F0000CF3B1F800C00CEA03069E4221D183003D
:100800004FF00F0C0CFA03F7BC4305FA03FC4CEA5B
:10081000040491F803C0BCF1280F05D100F1080CC5
:1008200008FA0CF8C2F8148091F803C0BCF1480F24
:1008300007D100F1080C4FF0010808FA0CF8C2F8D3
:100840001080401C0828CED35460BDE8F0814FF6DC
:10085000FF710180022181700421C170704702463E
:10086000002093680B400BB1012000E0002070478E
:100870000146886880B2704702460020D3680B406A
:100880000BB1012000E0002070470146C86880B22B
:10089000704701617047416170470AB1016100E032
:1008A00041617047C16070474FF480320A438261F2
:1008B0008161826182698269704702460020434BF0
:1008C00018684FF68073184040EA021008433F4B07
:1008D000186070473E49C8617047F0B50A4600236A
:1008E00000240021002500F00046B6F1004F02D19F
:1008F000364EF16901E0354E7168C0F3034583B2AD
:1009000000F44016B6F5401F08D121F070612F4E5B
:10091000766826F070662D4F7E6012E000F4801637
:10092000B6F5801F06D1032606FA05F4A14341F06F
:10093000706106E0460D360103FA06F6B14341F058
:10094000706122B1460D360103FA06F6314300F01C
:100950000046B6F1004F02D11C4EF16101E01B4E82
:100960007160F0BD30B500228B071C0F0F2303FA16
:1009700004F2164B08338C1053F824309343134C75
:1009800008348D1044F8253023468C1053F8243059
:100990008C07240F00FA04F423430C4C08348D1008
:1009A00044F8253030BD0A49DC310860704700004A
:1009B00000080140000C01400010014000140140FB
:1009C00000180140001C01400020014000000140CF
:1009D00000002042DF48006840F00100DD49086067
:1009E00008464068DC490840DA4948600846006823
:1009F000DA490840D74908600846006820F480209A
:100A000008600846406820F4FE0048604FF41F006C
:100A100088607047CF49096821F48031CD4A116060
:100A20001146096821F480211160B0F5803F03D0A0
:100A3000B0F5802F0ED106E0C649096841F4803137
:100A4000C44A116007E0C349096841F4A021C14AC2
:100A5000116000E000BF00BF704710B501460022E2
:100A6000002300204A11012A02D1BA4C236806E073
:100A7000022A02D1B74C236A01E0B64C636A01F046
:100A80001F02012494401C400CB1012000E0002012
:100A900010BD38B5002000900024002500BF312093
:100AA000FFF7DBFF05460098401C00900098B0F56A
:100AB000A06F01D0002DF2D03120FFF7CEFF08B19A
:100AC000012400E00024204638BD01460020A14A50
:100AD000106820F0F80040EAC10010607047A0499B
:100AE00008607047024600209A4B586820F47C103A
:100AF00042EA01031843974B5860704798490866CB
:100B0000704701460020934A506820F003000843D4
:100B1000506070478F48406800F00C0070470146F5
:100B200000208C4A506820F0F00008435060704765
:100B300001460020874A506820F4E0600843506076
:100B4000704701460020834A506820F4605040EA14
:100B5000C1005060704729B17E4A527A02437D4BF2
:100B60005A7204E07B4A527A82437A4B5A72704737
:100B70007B49D8310860704701460020754A5068AB
:100B800020F440400843506070470021714A2032F1
:100B90001170704A82F82010012802D004280AD16E
:100BA00004E001216B4A2032117005E00521694AF9
:100BB0002032117000E000BF00BF70476949086033
:100BC00070476449096A0143624A11627047654986
:100BD00044390860704730B500210022002400230A
:100BE0005C4D6D6805F00C0121B1042905D0082980
:100BF00023D105E05C4D056022E05B4D05601FE000
:100C0000544D6D6805F47012524D6D6805F48034D2
:100C1000022505EB92421CB9544D554305600BE08B
:100C20004C4D6D6805F400351DB1504D55430560C0
:100C300002E04D4D5543056002E04B4D056000BF9D
:100C400000BF444D6D6805F0F0010909484D6B5C2B
:100C50000568DD4045603F4D6D6805F4E061090AB7
:100C6000434D6B5C4568DD4085603A4D6D6805F429
:100C70006051C90A3E4D6B5C4568DD40C560354D2D
:100C80006D6805F44041890B3A4D6B5CC568B5FB56
:100C9000F3F5056130BD29B12E4A526902432D4B4F
:100CA0005A6104E02B4A526982432A4B5A617047C9
:100CB00029B1284A92690243264B9A6104E0254AE9
:100CC00092698243234B9A61704729B1214AD269C4
:100CD0000243204BDA6104E01E4AD26982431D4B75
:100CE000DA61704729B11B4AD2680243194BDA60B6
:100CF00004E0184AD2688243164BDA60704729B183
:100D0000144A12690243134B1A6104E0114A126932
:100D10008243104B1A61704712494039086070478E
:100D20000F49C86470470B49C87170470948406A49
:100D300040F0807007494862704701460020054A2C
:100D400092680A400AB1012000E000207047014982
:100D500088727047001002400000FFF8FFFFF6FEA7
:100D6000000042428004424200127A0000093D0025
:100D7000140000202400002010B50446FE488442E0
:100D800008D10121C014FFF7ADFF0021E014FFF7E7
:100D9000A9FFC4E0B4F1804F08D101210846FFF754
:100DA000AEFF00210120FFF7AAFFB8E0F34884421C
:100DB00008D101210220FFF7A2FF00210220FFF746
:100DC0009EFFACE0EE48844208D101210420FFF7E9
:100DD00096FF00210420FFF792FFA0E0E94884423B
:100DE00008D101210820FFF78AFF00210820FFF722
:100DF00086FF94E0E448844208D101211020FFF7E7
:100E00007EFF00211020FFF77AFF88E0DF48844250
:100E100008D101212020FFF772FF00212020FFF7D9
:100E20006EFF7CE0DA48844208D101214014FFF7CC
:100E300059FF00216014FFF755FF70E0D548844248
:100E400009D10121C804FFF74DFF00214FF4002014
:100E5000FFF748FF63E0D048844209D1012108052B
:100E6000FFF740FF00214FF48010FFF73BFF56E0F3
:100E7000CA48844209D101214805FFF733FF002108
:100E80004FF40010FFF72EFF49E0C548844208D117
:100E900001214020FFF733FF00214020FFF72FFF03
:100EA0003DE0C048844208D101218020FFF727FFA0
:100EB00000218020FFF723FF31E0BB48844208D1A6
:100EC00001218015FFF71BFF0021A015FFF717FF79
:100ED00025E0B648844209D101210804FFF702FF4A
:100EE00000214FF48030FFF7FDFE18E0B048844247
:100EF00009D101214804FFF7F5FE00214FF400302D
:100F0000FFF7F0FE0BE0AB48844208D101218804D2
:100F1000FFF7E8FE00214FF48020FFF7E3FE10BD4D
:100F200000220288944B98420ED0994B98420BD0E5
:100F3000B0F1804F08D0914B984205D0904B984229
:100F400002D0904B984204D14FF68F731A404B88D1
:100F50001A438D4B984207D08C4B984204D04FF6E1
:100F6000FF431A40CB881A4302808B8883850B8805
:100F70000385814B98420BD0854B984208D08B4B10
:100F8000984205D08A4B984202D08A4B984201D1B0
:100F90000B7A038601238382704770B500240022F8
:100FA0000023058C4FF6FE7635400584028C83883D
:100FB000048B4FF68F752C40B51E2C400D882C43AA
:100FC000751E2A400D892A434D882A436A4DA8423E
:100FD0000BD06F4DA84208D0744DA84205D0744D77
:100FE000A84202D0734DA84213D14FF6F7752A409C
:100FF0004D892A434FF6FB752A408D882A434FF6C8
:10100000FF652B404FF6FF552B408D892B43CD8933
:101010002B4383800483CD888586028470BD70B5A0
:10102000002400220023058C4FF6EF76354005841E
:10103000028C8388048B48F6FF752C404FF6FF45E1
:101040002C400D884FF6FF7606EA05252C434FF617
:10105000DF752A400D8906EA05152A434D8806EA00
:1010600005152A43444DA84202D0494DA8421DD13E
:101070004FF67F752A404D894FF6FF7606EA051533
:101080002A434FF6BF752A408D8806EA05152A4384
:101090004FF6FF352B404FF2FF752B408D8906EA46
:1010A00085052B43CD8906EA85052B438380048380
:1010B000CD880587028470BD70B50024002200230E
:1010C000058C4FF6FF6635400584028C8388848B3F
:1010D0004FF68F752C404FF6FC752C400D882C4335
:1010E0004FF6FF552A400D894FF6FF7606EA052593
:1010F0002A434D8806EA05252A431F4DA84202D0FF
:10110000234DA8421DD14FF2FF752A404D894FF65D
:10111000FF7606EA05252A434FF6FF352A408D88DB
:1011200006EA05252A434EF6FF752B404DF6FF755E
:101130002B408D8906EA05152B43CD8906EA051556
:101140002B4383808483CD888587028470BD70B5EE
:10115000002200230024058C4EF6FF7635400584DE
:10116000038C8488828B48F6FF752A404FF6FF4532
:101170002A400D8820E00000002C014000040040BF
:1011800000080040000C0040001000400014004027
:1011900000340140004C0140005001400054014027
:1011A00000180040001C00400020004000400140AA
:1011B00000440140004801404FF6FF7606EA05254D
:1011C0002A434DF6FF752B400D8906EA05352B4362
:1011D0004D8806EA05352B43FA4DA84202D0FA4D58
:1011E000A84208D14BF6FF752C408D894FF6FF764B
:1011F00006EA85152C4384808283CD88A0F8405070
:10120000038470BD828B4FF2FF331A408283828B3E
:101210004FF6FF7303EA01231A4382837047F0B548
:101220000C461546002200210026078C4EF6FF7C56
:1012300007EA0C070784828B018C4FF6FF7707EAD9
:10124000043640F6FF473A404FF6FF7707EA052796
:101250003A434FF6FF7707EA03373A43D94FB8428C
:101260000ED0D94FB8420BD0B0F1804F08D0D74F35
:10127000B84205D0D64FB84202D0D64FB84206D1B8
:101280004DF6FF77394046F48057394305E047F67D
:10129000FF57394044F48057394382830184F0BDBD
:1012A000828B4FF6F3731A408283828B0A438283C8
:1012B0007047F0B50C461546002200210026078C29
:1012C0004FF6FF6C07EA0C070784828B018C4FF600
:1012D000FF7707EA04264FF60C773A404FF6FF7780
:1012E00007EA03172F433A43B64FB8420ED0B64F22
:1012F000B8420BD0B0F1804F08D0B44FB84205D0FF
:10130000B34FB84202D0B34FB84206D14FF6FF57A1
:10131000394046F48077394305E04FF2FF573940B2
:1013200044F48077394382830184F0BD028B4FF20D
:10133000FF331A400283028B4FF6FF7303EA012347
:101340001A4302837047F0B50C461546002200216F
:101350000026078C4FF6EF7C07EA0C070784028B08
:10136000018C4FF6FF7707EA041640F6FF473A4034
:101370004FF6FF7707EA03373A434FF6FF7707EA5E
:1013800005273A438F4FB8420ED08F4FB8420BD04B
:10139000B0F1804F08D08D4FB84205D08C4FB84285
:1013A00002D08C4FB84206D14FF6DF77394046F075
:1013B0001007394305E04FF65F77394044F01007D6
:1013C000394302830184F0BD028B4FF6F3731A4058
:1013D0000283028B0A4302837047F0B50C46154620
:1013E00000220021068C4FF6FE773E400684028BD9
:1013F000018C4FF60C7632407E1C06EA03162E4313
:101400003243704EB0420ED06F4EB0420BD0B0F1AE
:10141000804F08D06D4EB04205D06D4EB04202D024
:101420006C4EB04206D14FF6FD76314044F00106D5
:10143000314305E04FF6F576314044F00106314383
:1014400002830184F0BD70B505460C465D488542B7
:101450000ED05D4885420BD0B5F1804F08D05B4877
:10146000854205D05A48854202D05A48854200D16B
:1014700000E000BF208850B92389A28861882846EF
:10148000FFF7ABFFE1882846FFF79EFF25E02088A5
:1014900004280AD12389A28861882846FFF753FFD0
:1014A000E1882846FFF742FF17E0208808280AD184
:1014B0002389A28861882846FFF7FBFEE188284639
:1014C000FFF7EEFE09E02389A28861882846FFF72E
:1014D000A6FEE1882846FFF795FE70BD2DE9F04194
:1014E00005460C4600260127608808B9022600E060
:1014F0000026A088012801D1022700E001272088CA
:10150000A0B92389A28861882846FFF766FFE18891
:101510002846FFF759FF23893A4631462846FFF708
:1015200012FFE1882846FFF701FF13E02389A28814
:1015300061882846FFF707FFE1882846FFF7F6FE97
:1015400023893A4631462846FFF747FFE188284677
:10155000FFF73AFFBDE8F0810A884B881A438B8871
:101560001A43CB881A430B891A434B891A438B8938
:101570001A43A0F8442070474FF6FF718180002184
:101580000180C1804180017270470021018041804B
:101590008180C180018141818181C18170470021A9
:1015A00001804180012181800021C180018170473B
:1015B0000021018041808180C18001814181818140
:1015C00070470000002C014000340140000400403E
:1015D00000080040000C004021B1028842F00102E6
:1015E000028004E002884FF6FE731A4002807047C2
:1015F00031B1B0F8442042F40042A0F8442005E0A4
:10160000B0F84420C2F30E02A0F8442070471AB18B
:1016100083890B43838102E083898B4383817047F5
:101620008182704741EA0203A0F8483070471AB13E
:1016300083890B43838102E083898B4383817047D5
:1016400001894FF6F8721140018170470A46002166
:1016500001894FF68F73194011430181704730B5EE
:1016600004460D4629462046FFF7F0FF208940F04A
:101670000700208130BD2DE9F04104460D46164695
:101680001F46602D06D13B46012231462046FFF71A
:101690005AFE05E03B46012231462046FFF79DFEFB
:1016A00029462046FFF7D2FF208940F0070020811D
:1016B000BDE8F08130B50C4600210189C9B24FF672
:1016C000FF7505EA0325154325432943018130BDF4
:1016D0002DE9F04105460E4617469846002443463C
:1016E0003A4631462846FFF7E5FF2C894FF6F87059
:1016F000044044F007044FF68F70044044F0700437
:101700002C81BDE8F081F0B504460D4616461F4613
:101710003B46324629462046FFF7CCFF208940F45D
:1017200080402081F0BD0185828270470A460021F9
:1017300001884FF68F731940114301807047F0B54F
:101740000C4615461E460021002200230189028B0B
:10175000038C4FF6F877394021434FF6FC473A4067
:1017600040F201173A434FF6DD773B404FF6FF77E3
:1017700007EA06172F433B43018102830384F0BD30
:101780000A460021018B4FF68F73194011430183E4
:1017900070470A460021018B48F6FF7319404FF647
:1017A000FF7303EA02231943018370470A460021AD
:1017B000818B4FF68F7319401143818370470A461E
:1017C0000021818B48F6FF7319404FF6FF7303EA3F
:1017D000022319438183704721B1028842F08002BD
:1017E000028004E002884FF67F731A40028070473F
:1017F00021B1828842F00402828004E082884FF6A0
:10180000FB731A408280704721B1828842F008023F
:10181000828004E082884FF6F7731A408280704716
:1018200021B1828842F00102828004E082884FF672
:10183000FE731A40828070470A460021018B4FF6E2
:10184000F77319401143018370470A460021018B49
:101850004FF2FF7319404FF6FF7303EA0223194357
:10186000018370470A460021818B4FF6F7731940B8
:101870001143818370470A460021818B4FF2FF7329
:1018800019404FF6FF7303EA02231943818370471F
:101890000A460021018B4FF6FB7319401143018367
:1018A00070470A460021018B4FF6FF3319404FF66F
:1018B000FF7303EA02231943018370470A4600219C
:1018C000818B4FF6FB7319401143818370470A46A1
:1018D0000021818B4FF6FF3319404FF6FF7303EA67
:1018E00002231943818370470A460021018B4FF67A
:1018F0007F7319401143018370470A460021018B11
:10190000C1F30E014FF6FF7303EA0223194301836B
:1019100070470A460021818B4FF67F7319401143AF
:10192000818370470A460021818BC1F30E014FF677
:10193000FF7303EA02231943818370470A4600219B
:10194000018C4FF6FD7319401143018470470A461C
:101950000021018C4FF6F773194011430184704741
:101960000A460021018C4FF6DF7319404FF6FF73D2
:1019700003EA02131943018470470A460021018CCF
:101980004FF67F7319404FF6FF7303EA02131943B2
:10199000018470470A460021018C4FF6FF5319401D
:1019A0004FF6FF7303EA02231943018470470A4686
:1019B0000021018C4FF2FF7319404FF6FF7303EAC9
:1019C00002231943018470470A460021018C4DF619
:1019D000FF7319404FF6FF7303EA02331943018482
:1019E000704730B5002301248C40A3B2048C9C4383
:1019F0000484048C02FA01F5ADB22C43048430BD9A
:101A000030B5002304248C40A3B2048C9C4304848E
:101A1000048C02FA01F5ADB22C43048430BD70B5DC
:101A20000346002000241846183001258D40ACB232
:101A30001D8CA5431D8409B1082909D100EB610063
:101A4000056825F0700505600568154305600EE022
:101A50000D1FC5F34E052844056825F4E0450560D3
:101A600005684FF6FF7606EA02263543056070BD2D
:101A700021B1028842F00202028004E002884FF69F
:101A8000FD731A400280704721B1028842F00402BF
:101A9000028004E002884FF6FB731A400280704710
:101AA00021B1828842F08002828004E082884FF671
:101AB0007F731A408280704702884FF6F7731A408E
:101AC000028002880A430280704782884FF68F7333
:101AD0001A40828082880A438280704702894FF6CA
:101AE000F8731A40028102890A4302817047028911
:101AF0004FF67F731A40028102890A4302817047C0
:101B0000818470478185704781867047018770475F
:101B100081877047A0F84010704702884FF6FF4356
:101B20001A40028002880A43028070470146888E6C
:101B300070470146088F70470146888F70470146FD
:101B4000B1F8400070470146888C70470146088D07
:101B5000704702460020138A0B400BB1012000E0C1
:101B600000207047CA430282704730B50246002009
:101B700000230024158A05EA0103958905EA01047A
:101B800013B10CB1012000E0002030BDCA43028235
:101B90007047000010B50446FB48844209D101217A
:101BA0008803FFF79FF800214FF48040FFF79AF871
:101BB00032E0F648844209D101214804FFF79FF83A
:101BC00000214FF40030FFF79AF825E0F0488442F6
:101BD00009D101218804FFF792F800214FF48020F9
:101BE000FFF78DF818E0EB48844209D10121C804C1
:101BF000FFF785F800214FF40020FFF780F80BE095
:101C0000E548844208D101210805FFF778F8002152
:101C10004FF48010FFF773F810BD2DE9F04786B040
:101C200005460E460024A24600BFA1460027B08903
:101C300000B100BF2F462C8A4CF6FF700440F0889C
:101C400004432C82AC894EF6F3100440B0883189ED
:101C50000843718908430443AC81AC8A4FF6FF40C6
:101C60000440B0890443AC8201A8FEF7B4FFC64823
:101C7000874202D1DDF810A001E0DDF80CA0A889B0
:101C800000F4004040B10AEBCA0000EB0A103168D2
:101C90004900B0FBF1F807E00AEBCA0000EB0A10BC
:101CA00031688900B0FBF1F86420B8FBF0F0040162
:101CB0002009642101FB1089A88900F4004040B18B
:101CC000322000EBC900B0FBF1F000F00700044344
:101CD00008E0322000EB09106421B0FBF1F000F0C5
:101CE0000F0004432C8106B0BDE8F0874FF4165175
:101CF000016000218180C18001810C21418100218E
:101D00008181704710B502460020108A4FF2FF0310
:101D100018400B884C8823438C882343CC8823436A
:101D20001843108210BD0021018041808180C18054
:101D3000704721B1828942F40052828104E0828995
:101D40004DF6FF731A4082817047F0B503460024B8
:101D500000260025002040F66A17B94200D100BFD6
:101D60001846C1F3421401F01F06012707FA06F5D1
:101D7000012C01D10C3004E0022C01D1103000E024
:101D800014301AB107682F43076002E00768AF43B9
:101D90000760F0BD1AB1838A0B43838202E0838A15
:101DA0008B4383827047028A4FF6F0731A40028297
:101DB000028A0A430282704782894FF2FF731A40F7
:101DC000828182890A438281704721B1828942F0EF
:101DD0000202828104E082894FF6FD731A408281FB
:101DE0007047028A4FF6DF731A400282028A0A4362
:101DF0000282704721B1028A42F48042028204E0EA
:101E0000028A4BF6FF731A4002827047C1F3080240
:101E10008280704701468888C0F308007047818936
:101E200041F0010181817047028BD2B20283028BA3
:101E300042EA012202837047028B02F47F4202834E
:101E4000028B0A430283704721B1828A42F020024A
:101E5000828204E0828A4FF6DF731A4082827047E2
:101E600021B1828A42F01002828204E0828A4FF617
:101E7000EF731A408282704721B1828A42F00802D1
:101E8000828204E0828A4FF6F7731A40828270479A
:101E900021B1828942F40042828103E08289C2F347
:101EA0000E028281704721B1828A42F400628282EE
:101EB00004E0828A4FF2FF731A4082827047828A5E
:101EC0004FF6FB731A408282828A0A4382827047ED
:101ED00021B1828A42F00202828204E0828A4FF6B5
:101EE000FD731A408282704702460020B1F5007FE0
:101EF00000D100BF13880B400BB1012000E000208F
:101F0000704701F40072B2F5007F00D100BFCA43F0
:101F10000280704770B5024600240023002500208F
:101F200040F66A16B14200D100BFC1F3421501F07C
:101F30001F03012606FA03F3012D02D196893340CF
:101F400006E0022D02D1168A334001E0968A334022
:101F50000C12012606FA04F41688344013B10CB1B1
:101F6000012000E0002070BD10B50022002340F6E3
:101F70006A14A14200D100BF0A1201249440A3B206
:101F8000DC43048010BD00000038014000440040E4
:101F900000480040004C004000500040482000F045
:101FA00057FA4FF4C060FEF7CFF900F0A9FA6420A9
:101FB00000F06AFA4FF4165000F014FB642000F0B1
:101FC00063FA4FF4E13000F069FC642000F05CFA41
:101FD0004FF4E13000F01CFE642000F055FA444A52
:101FE0004449454800F079F981E0444800880428D4
:101FF0002DD143480078552812D141484078AA286D
:102000000ED13F488078AA280AD13D48C0785A2886
:1020100006D102203B4908700020384908804BE077
:1020200037480078552847D135484078AA2843D109
:1020300033488078A5283FD13148C078AA283BD1C1
:1020400003203049087000202C49088034E02D48D6
:102050000078022815D12C48007801282CD1274877
:10206000008850B1254802882549284800F030FFF3
:1020700022480188254800F012FD002022490870FE
:102080001AE020480078032809D121480078012867
:1020900005D100F038FD00201D4908700CE01948FA
:1020A0000078012808D11A480078012804D100F0EE
:1020B00062FD0020164908701648007801280DD1ED
:1020C000154802881549164800F002FF1248018899
:1020D000134800F0CAFE00200E490870114800782D
:1020E000012804D100F0BAFB00200E4908707CE7FB
:1020F0006C000020000020410000704254000020CD
:10210000A0020020280000205600002060010020CE
:1021100034000020500000204E000020E00100208C
:10212000200200203C000020704700BFFEE700BFF7
:10213000FEE700BFFEE77047704770477047704783
:102140002DE9F04707460D4616464FF000080024DB
:1021500005E0601C56F8200046F82400641C681E48
:10216000A042F6DC46F82070002406E056F8241061
:10217000404600F0BFFE8046641CAC42F6DB2846B9
:1021800000F089FF81464946404600F03DFF804609
:102190004046BDE8F0872DE9FC5F82460E461546B5
:1021A00000240027A046701E45F820A000BF05E0CF
:1021B000601C55F8200045F82400641C701EA042E5
:1021C000F6D800241AE0002713E055F82710781CF1
:1021D00055F8200081420BDD55F827000190781C4E
:1021E00055F8200045F82700791C019845F8210092
:1021F0007F1C701E001BB842E7D8641C701EA042F2
:10220000E1D8D5E90010A0EB010B012410E0601C1F
:1022100055F8200055F82410401A584507DD601C79
:1022200055F8200055F82410A0EB010BA046641CC3
:10223000701EA042EBD84FF00009701C00EBD0726A
:1022400008F10101B1EB620F18D9002409E055F83B
:10225000240000F017FF4946009000F04BFE814635
:10226000641C4445F3D908F1010000F014FF014655
:102270000090484600F0C8FE814619E008F10104CC
:1022800009E055F8240000F0FDFE4946009000F0FA
:1022900031FE8146641CB442F3D3A6EB0801481E0C
:1022A00000F0F9FE01460090484600F0ADFE814680
:1022B0004846BDE8FC9F70B506460D4614462946C3
:1022C000304600F0F7FE00D22E462146304600F0A0
:1022D000E7FE00D22646304670BD2DE9FF5F074677
:1022E0000D4614462946384600F08EFE03905648A7
:1022F000039900F089FE804601F01AF9064631463E
:10230000304600F04FFE8346504801F053F84FF03E
:102310008041019000F046FE8246314600F042FEC8
:1023200081464FF07E5100F0E5FD8046594600F0B1
:10233000E1FD02900021284600F0B2FE01D8BDE880
:10234000FF9F3146304600F02DFE8046029900F096
:102350005BFEE0604FF08040E16800F023FE20610A
:10236000E16861614FF07E5020603146304600F0F8
:1023700019FE82464FF07E5100F00EFE81464FF06E
:10238000804100F00FFE8046029900F03DFE606043
:102390003146304600F006FE01902C4801F00AF864
:1023A0004FF08041009000F0FDFD8346314600F083
:1023B000F9FD82464FF07E5100F0F1FD8146019912
:1023C00000F098FD8046029900F01EFEA06000BF5C
:1023D000B5E72DE9FE4F06460C461546A660E168B6
:1023E000A86800F0DFFD02902169686800F0DAFD5E
:1023F00082462168686900F0D5FD0190616828690E
:1024000000F0D0FD0090A168E86800F0CBFD8346A5
:10241000009900F06FFD8146019900F06BFD804648
:10242000514600F0B9FD0746029900F0B5FD606124
:1024300060682060A06860602069E0606169216177
:102440006069BDE8FE8F0000DB0F4940DB0F493FAC
:102450004FF0E021096921F004014FF0E022116101
:10246000C21700EB5272C2F3C702234B1A7019460F
:10247000097801EB4102C2EBC1114FF6FF7202EA8B
:10248000C1011E4A1180704701461C4A12884A4306
:102490004FF0E0235A6100229A6101221A6100BFC5
:1024A0004FF0E022106900F001021AB100F480320E
:1024B000002AF5D000224FF0E0231A619A6170479C
:1024C00001460D4A12784A434FF0E0235A61002238
:1024D0009A6101221A6100BF4FF0E022106900F0FA
:1024E00001021AB100F48032002AF5D000224FF028
:1024F000E0231A619A6170472A0000202C00002016
:102500001FB501210846FEF7E0FB1C208DF80000F6
:1025100000208DF801008DF8020001208DF80300E5
:102520006846FDF716FF4FF08040FEF725FC40F2AD
:10253000E730ADF808004820ADF804000020ADF801
:102540000A00ADF8060001A94FF08040FEF7E8FC54
:1025500001218807FFF706FB012211469007FFF7CC
:1025600056F801218807FFF737F801210846FEF7E2
:10257000ACFB1FBD10B501218807FFF7F6FA30B399
:1025800001218807FFF702FB11480068401C104931
:10259000086010480068401C0E4908600E4800683A
:1025A000401C0D4908600A480068102805D1002029
:1025B000074908600120094908700648006810288A
:1025C00005D100200349086001200549087010BDAD
:1025D000300000203800002040000020340000209F
:1025E0003C00002010B592B0044601210420FEF703
:1025F0005FFB01218803FEF75BFB01210846FEF724
:102600004AFB18208DF8370001208DF83600400273
:10261000ADF834000DA99648FEF78EF804208DF829
:1026200037000002ADF834000DA99148FEF784F898
:1026300025208DF8300003208DF8310001208DF821
:1026400032008DF833000CA8FDF783FE0E940020B5
:10265000ADF83C00ADF83E00ADF840000C20ADF800
:1026600042000020ADF844000C20ADF842000122E9
:1026700040F224417F48FFF768FB0EA97D48FFF731
:10268000CCFA7D48FDF7CEFE7A48001D01907B48CC
:1026900002900020039040200490002005908020AC
:1026A000069000200790089009904FF440500A903F
:1026B00000200B9001A97048FDF756FF01216E48DC
:1026C000FDF77DFF012240216A48FFF763FB6A485E
:1026D0001438FDF7A7FE6748001D01906848029076
:1026E0001020039040200490002005908020069048
:1026F00000200790089009904FF400500A900020A5
:102700000B9001A95C481438FDF72EFF012202212D
:1027100059481438FDF75FFF012208215648143844
:10272000FDF759FF012280215248FFF733FB0021BA
:1027300051481438FDF743FF0E208DF83000032078
:102740008DF8310002208DF8320001208DF8330021
:102750000CA8FDF7FEFD01214648FFF7EAFA4021EB
:102760004448FFF7CEFB12B010BD70B5002440F214
:1027700024414048FFF7CEFB00283ED03D4800886A
:102780003C48001D008800213B48FDF718FF3A48EF
:10279000FDF72CFFC0F1400084B22246374939488A
:1027A00000F096FB374840783649097800EB012065
:1027B000354908800846008840F6B831884214DC64
:1027C0003148008800F067FC0546002100F072FCEB
:1027D0000BD22E4A05212C480088FFF7DCFC054669
:1027E0002B4900F011FC2B49086040212248FDF7DD
:1027F000FBFE01212048FDF7E2FE70BD10B500216F
:102800001D481438FDF7DBFE002280211948FFF730
:10281000C1FA40201849583988648001FDF71DFF2E
:1028200001201D49087010BD70B505460C4600BF5B
:10283000194800780028FBD00020174908700E487E
:1028400058380565846401210B481438FDF7B7FE3C
:10285000012280210748FFF79DFA70BD10B5552071
:102860000749087040210648FFF7DEFF10BD000051
:102870000008014000380140580002400C010020CF
:10288000CC0000204A000020480000204C0100201D
:1028900000007A445C0000204600002010B592B091
:1028A000044601210420FEF703FA01214804FEF743
:1028B0000CFA01210846FEF7EEF918208DF83700D2
:1028C00001208DF836000420ADF834000DA9C6486B
:1028D000FDF732FF04208DF837000820ADF83400F2
:1028E0000DA9C148FDF728FF26208DF830000220F1
:1028F0008DF8310001208DF832008DF833000CA8DE
:10290000FDF727FD0E940020ADF83C00ADF83E0029
:10291000ADF840000C20ADF842000020ADF84400B6
:102920000C20ADF84200012240F22441AF48FFF7ED
:102930000CFA0EA9AD48FFF770F9AD48FDF772FD2E
:10294000AA48001D0190AB4802900020039040204F
:1029500004900020059080200690002007900890A9
:1029600009904FF440500A9000200B9001A9A04814
:10297000FDF7FAFD01219E48FDF721FE01224021CD
:102980009A48FFF707FA9A481430FDF74BFD97482D
:10299000001D019098480290102003904020049060
:1029A00000200590802006900020079008902020AD
:1029B000099000020A9000200B9001A98C48143065
:1029C000FDF7D2FD0122022189481430FDF703FEF4
:1029D0000122082186481430FDF7FDFD01228021E7
:1029E0008248FFF7D7F9002181481430FDF7E7FD51
:1029F00011208DF8300002208DF831008DF8320062
:102A000001208DF833000CA8FDF7A3FC01217748C5
:102A1000FFF78FF940217548FFF773FA12B010BD28
:102A200010B540F224417148FFF774FA00B36F48C3
:102A300000886E48001D008800216D48FDF7BFFD2D
:102A40006B48FDF7D3FDC0F140006C490880084693
:102A5000028868496A4800F03BFA01206949087019
:102A600040216348FDF7C0FD01216148FDF7A7FD46
:102A700010BD10B500215E481430FDF7A0FD002206
:102A800080215A48FFF786F94020594918310860DB
:102A90008004FDF7E2FD01205B49087010BD70B5B0
:102AA00005460C4600BF584800780028FBD000209F
:102AB000554908704E48203005604D486C38C0F8C4
:102AC000844001214A481430FDF779FD012280211C
:102AD0004648FFF75FF970BD10B50A4601785529E1
:102AE00010D14178AA290DD1C17AAA290AD10C2A7C
:102AF00008D1002104E08B1CC45C444B5C54491C8D
:102B00000929F8DB10BD10B586B055208DF80800F6
:102B1000AA208DF80900022405E0A01E3B49085CAC
:102B200002A90855641C0B2CF7DB3848001F00680D
:102B300001909DF804008DF813009DF805008DF8B4
:102B400014009DF806008DF815009DF807008DF81B
:102B50001600AA208DF81700002404E002A8005DEA
:102B600025490855641C102CF8DB10212248FFF77A
:102B700096FF06B010BD10B586B055208DF8080040
:102B8000AA208DF8090000208DF80A00032403E034
:102B9000002002A90855641C0B2CF9DB1B48001F00
:102BA000006801909DF804008DF813009DF8050061
:102BB0008DF814009DF806008DF815009DF80700AB
:102BC0008DF81600AA208DF81700002404E002A852
:102BD000005D09490855641C102CF8DB10210648DB
:102BE000FFF75DFF06B010BD000801400044004043
:102BF0006C000240A0010020600100204E00002077
:102C0000E0010020500000204C0000206000002067
:102C100010B592B0044601210820FEF749F80121C1
:102C20008804FEF752F801210846FEF734F8182010
:102C30008DF8370001208DF836008002ADF83400A1
:102C40000DA99748FDF778FD04208DF83700400264
:102C5000ADF834000DA99248FDF76EFD27208DF8E0
:102C6000300001208DF831008DF832008DF83300EE
:102C70000CA8FDF76EFB0E940020ADF83C00ADF8FB
:102C80003E00ADF840000C20ADF842000020ADF849
:102C900044000C20ADF84200012240F2244181485A
:102CA000FFF753F80EA97F48FEF7B7FF7E48FDF700
:102CB000B9FB7C48001D01907C48029000200390E5
:102CC000402004900020059080200690002007906E
:102CD000089009904FF440500A9000200B9001A9F1
:102CE0007148FDF741FC01216F48FDF768FC0122A6
:102CF00040216C48FFF74EF86B481438FDF792FB03
:102D00006848001D01906A480290102003904020FE
:102D100004900020059080200690002007900890E5
:102D200009904FF400500A9000200B9001A95E48D2
:102D30001438FDF719FC012202215B481438FDF715
:102D40004AFC0122082158481438FDF744FC0122AE
:102D500080215448FFF71EF8002153481438FDF72E
:102D60002EFC0C208DF8300001208DF8310002205F
:102D70008DF8320001208DF833000CA8FDF7E9FA38
:102D800001214848FEF7D5FF40214648FFF7B9F832
:102D900012B010BD10B540F224414248FFF7BAF816
:102DA00000284BD03F4800883E48001D0088002185
:102DB0003D48FDF704FC3C48FDF718FCC0F140001D
:102DC0003C4908800846028838493B4800F080F8B2
:102DD0003A480078032807D100203949087035485F
:102DE00001883548FFF778FE334800785A281AD111
:102DF00031484078A52816D12F488078A52812D1CF
:102E00002D48C0785A280ED12B4800795A280AD16B
:102E100029484079A52806D126480088062802D1ED
:102E200001202849087001202749087040211E48C8
:102E3000FDF7DAFB01211C48FDF7C1FB10BD10B501
:102E4000002119481438FDF7BAFB002280211548EB
:102E5000FEF7A0FF40201449303908621020FDF72A
:102E6000FCFB01201949087010BD70B505460C46E1
:102E700000BF164800780028FBD0002013490870D6
:102E80000948303885620462012107481438FDF78B
:102E900096FB012280210348FEF77CFF70BD0000F5
:102EA000000C014000480040300002406002002059
:102EB0002002002054000020A00200202800002052
:102EC000440000205700002056000020520000203F
:102ED00040EA01039B0703D009E008C9121F08C09C
:102EE000042AFAD203E011F8013B00F8013B521E1C
:102EF000F9D27047F0B480EA0102D40F4200B2EB7D
:102F0000410F02D20246084611464A0042D0C30D84
:102F1000DDB2C1F3C752AD1A202D35DAC1F3160167
:102F200041F4000204B15242C5F1200602FA06F152
:102F30002A411044B3EBD05F23D0C4B1012DA0EBE4
:102F4000C35009DCF0BC4FF0004202EAC352DBB2CE
:102F500000F5000000F0C1B8400000F1807000EB07
:102F6000C350A0F1807040EAD170490009E04908DF
:102F700041EAC071A0EBC35000F50000400800EB2F
:102F8000C350F0BC00F0A0B86142012202EB410145
:102F9000001BF6E7F0BC704781F00041AAE780F023
:102FA0000040A7E780EA010210B502F000434000AC
:102FB00022D04A001FD0010E01EB1261C0F356006F
:102FC000C2F3560240F4000042F40002A0FB0220CB
:102FD00000047F39140400D0401C50EA124001D490
:102FE0004000491EC2B20C0604EBD010401C400841
:102FF000802A02D003E0002010BD20F0010000294B
:1030000000DA0020184310BD30B480EA010202F05B
:10301000004530F0004221F0004013D090B1C30DC4
:10302000D40DC2F31601C0F31600E41A41F40001F6
:1030300040F400027D34914201D3641C00E0490059
:10304000002C02DA30BC002070474FF4000000234F
:10305000914201D3891A034340084FEA4101F7D155
:1030600051B1914202D14FF0004105E002D24FF040
:10307000010101E06FF0010103EBC450284430BCB2
:1030800000F022B8C10F80EAE0700844CA07962316
:10309000002100F022B896230022114600F01DB84E
:1030A000002801DBC0F10040002901DBC1F1004133
:1030B00081427047002801DBC0F10040002901DB9C
:1030C000C1F10041884270470029A8BF7047401CE9
:1030D000490008BF20F00100704710B4B0FA80FC2E
:1030E00000FA0CF050EA010404BF10BC704749B16B
:1030F000CCF1200421FA04F411FA0CF118BF0121DB
:1031000021430843A3EB0C01CB1D4FEA00614FEABA
:10311000102042BF002010BC704700EBC350104489
:103120000029A4BF10BC7047401C490008BF20F014
:10313000010010BC704710B541000CD0C0F3C7515E
:10314000962908DC7E2909DC06DB410204D000F068
:10315000004040F07E5010BD002010BDC1F196042B
:10316000C4F1200100FA01F1E040FFF7ADFFA040FB
:1031700010BD00F0004220F00040C10DC0F3160069
:1031800040F400007F2901DA00207047962903DC13
:10319000C1F19601C84001E096398840002AF4D078
:1031A00040427047064C074D06E0E06840F00103DE
:1031B00094E8070098471034AC42F6D3FCF7BCFF04
:1031C000C4360008E4360008420005D0C0F3C752F8
:1031D0005242914201DC0020704700EBC150704721
:1031E0004100080218BF04200A0E18BF40F0010079
:1031F0004FF07F4232EA010108BF40F0020001288F
:1032000008BF052070470121FFF7DEBF00210846F7
:10321000FFF7FABE6FF05E010807FFF7D5BF0000A9
:103220002DE9F04D0D4614464FF07F41B1EB440FB0
:103230009EBF4FF0FF312960BDE8F08D4FF0004098
:1032400040EA0421C4F3C750783810F01F024A4BFB
:103250004FEA601CC2F120067B44C4F3C750A0F1C2
:1032600078004FEA601003EB800053F82C3008BF61
:10327000D0E901C612D0D0F804C093402CFA06F76A
:103280003B4387680CFA02FC27FA06F8C06807FA85
:1032900002F2F0404CEA080C42EA0006A3FB0132BD
:1032A000ACFB01C0A6FB016101EB0C068E4234BFF2
:1032B0004FF0010C4FF0000CC1186144BCF1000F3D
:1032C00002D0814202D903E0814201D2012000E014
:1032D0000020104400F120024FEA92188006CA0C28
:1032E00040EA42304F03C5F80080FFF7CBFE82462C
:1032F0003846FFF7D0FE6FF01201FFF765FF074673
:103300003046FFF7C8FE6FF02501FFF75DFF8346EB
:1033100039465046FFF7EEFD5946FFF7EBFD00F545
:1033200000666FF30B0651463046FFF735FE39460F
:10333000FFF732FE5946FFF732FE1049FFF732FE23
:1033400007460F493046FFF72DFE3946FFF7D2FDFD
:1033500007460C493046FFF725FE3946FFF7CAFD00
:1033600014F0004F08BFBDE8F08DC8F1805180F027
:1033700000402960BDE8F08D48040000DB0FC92F34
:1033800022AAFD290000C92F02E008C8121F08C1A7
:10339000002AFAD170477047002001E001C1121FD6
:1033A000002AFBD170470000014908607047000007
:1033B000580000202DE9F843044602464F4869466C
:1033C000B0EB420F09D94FF0E640B0EB420F94BF8B
:1033D00000204FF0FF30009030E0494B22F00040D9
:1033E000834271D947492046FFF7DCFDFFF7A3FE72
:1033F0008046FFF7BEFE00F00300009042494046C1
:10340000FFF7D0FD054641494046FFF7CBFD064694
:103410003F494046FFF7C6FD07463E494046FFF795
:10342000C1FD2146FFF7BBFD3946FFF7B5FD31462B
:10343000FFF7B2FD2946FFF7AFFD04462546009C85
:10344000002C45DB294614F0010F08461CD0FFF77D
:10345000A9FD06463049FFF7A5FD3049FFF79FFD5E
:103460003146FFF79FFD2E49FFF744FD3146FFF738
:1034700099FD2946FFF796FD2946FFF73BFD14F01D
:10348000020F1CD0BDE8F883FFF78CFD05462549E7
:10349000FFF788FD2449FFF72DFD2946FFF782FD40
:1034A0002249FFF727FD2946FFF77CFD4FF07E51AB
:1034B000FFF720FD14F0020F08BFBDE8F88380F08D
:1034C0000040BDE8F883FFE71046FFF7A9FEB4E728
:1034D0006800B0F17F4F3CBF4FF07E50BDE8F883ED
:1034E00007D14FF00100FFF75FFFBDE8F843FFF79A
:1034F0008DBE2846BDE8F843FFF785BEB61F927E15
:10350000490E494683F9223F1A61342C0020A23328
:1035100000A0FD390000C93F336D4C39DA82083C08
:10352000A0AA2ABEB93AB2BACA9F2A3DDDFFFFBEA1
:103530002DE9F843044602464C486946B0EB420F79
:1035400009D94FF0E640B0EB420F94BF00204FF096
:10355000FF30009030E0464B22F00040834265D9B6
:1035600044492046FFF71EFDFFF7E5FD8046FFF7C3
:1035700000FE00F0030000903F494046FFF712FDB7
:1035800005463E494046FFF70DFD06463C4940468C
:10359000FFF708FD07463B494046FFF703FD21467C
:1035A000FFF7FDFC3946FFF7F7FC3146FFF7F4FC67
:1035B0002946FFF7F1FC0446009D002D3ADB214629
:1035C0000846FFF7EFFC06462F49FFF7EBFC2F49B3
:1035D000FFF790FC3146FFF7E5FC2D49FFF78AFC29
:1035E0003146FFF7DFFC2B49FFF784FC3146FFF73C
:1035F000D9FC2949FFF77EFC3146FFF7D3FC274968
:10360000FFF778FC3146FFF7CDFC2146FFF7CAFCF7
:103610002146FFF76FFC15F0010F08BFBDE8F883E6
:103620000146BDE8F8431E48FFF7EEBC1046FFF721
:10363000F7FDC0E76000B0F17F4F09D22046FFF7E9
:10364000CFFD042808BFFFF7E5FD2046BDE8F8835D
:1036500006D10120FFF7A8FEBDE8F843FFF7D6BD6D
:103660002046BDE8F843FFF7CEBD0000B61F927EAE
:10367000490E494683F9223F1A61342C0020A233B7
:1036800000A0FD390000C93FBBE9223C0C6D063BA0
:103690008A76CE3CACB5593D35A1083E29AAAA3E52
:1036A000000080BF000000006E83F9A22915444E7F
:1036B000D15727FCC0DD34F5999562DB4190433C3E
:1036C000AB6351FEE4360008000000205C000000FF
:1036D00088330008403700085C00002084060000A2
:1036E0009833000800A24A04000000000000000017
:1036F0000102030406070809000000000102030498
:10370000010203040607080902040608010000007C
:1037100000000000000000000000000000000000A9
:103720000000000000000000000001000000000098
:103730000100000000000100000000000000000087
:0400000508000131BD
:00000001FF
